:020000040000FA
:020000000928CD
:080008000528A20AA0308B00BC
:1000100009002100D03095008D0110308C00F030A7
:10002000990023008C018D012000A0308B008D01F0
:100030009501A201A101A0014820A1151F280301DB
:100040003820A1192920A1183F20C020C820CD2088
:100050001F28A01FB70A0800A0010C1E36282E1862
:10006000080021142E140B30B80708002E100800C9
:1000700021085539031908000935A1040800211881
:1000800048205720672077208F209D20A42008003B
:100090002110A301A401A501A601A701A801A9019E
:1000A000AD01AF01B001B101B201B30108003A30B6
:1000B000A4070318A30A2D1862282908A407031807
:1000C000A30A08002908A402031CA30308001D308A
:1000D000B0070318AF0A2D1872282908B0070318B3
:1000E000AF0A08002908B002031CAF030800240867
:1000F000B4002308B50086203608A8003008B400F4
:100100002F08B50086203608B100080034083518DD
:1001100009098400883085000008B6000800A50F92
:100120000800A60A2608243A0319A110893087007E
:10013000260886000108A700080027080319080000
:10014000A836890BA02808002808A900A936AD0107
:10015000A31C08002D1408003108B200B301AF1C25
:10016000080033140800371F0800B701B83608002C
:10017000380803190800B90A0936031DBB2808000E
:10018000B136AF18C528B1170800B109B11308007E
:10019000221CC828A00AA201080031088D00B6015F
:0601A000A801B1010800F6
:1010000000000100030004000600070009000A00B8
:101010000C000E000F001100120014001500170044
:1010200019001A001C001D001F00200022002400CF
:101030002500270028002A002B002D002E0030005C
:101040003100330035003600380039003B003C00E9
:101050003E003F0041004200440045004700480078
:101060004A004B004D004E00500051005300540008
:101070005600570059005A005C005D005F00600098
:101080006100630064006600670069006A006C002C
:101090006D006E00700071007300740075007700C1
:1010A00078007A007B007C007E007F008000820058
:1010B000830084008600870088008A008B008C00F3
:1010C0008E008F009000920093009400950097008E
:1010D000980099009A009C009D009E009F00A1002E
:1010E000A200A300A400A500A700A800A900AA00D0
:1010F000AB00AC00AE00AF00B000B100B200B30076
:10110000B400B500B700B800B900BA00BB00BC001D
:10111000BD00BE00BF00C000C100C200C300C400CB
:10112000C500C600C700C800C900CA00CB00CC007B
:10113000CD00CE00CF00D000D100D100D200D3002E
:10114000D400D500D600D700D700D800D900DA00E7
:10115000DB00DC00DC00DD00DE00DF00DF00E000A3
:10116000E100E200E200E300E400E400E500E60064
:10117000E600E700E800E800E900EA00EA00EB002A
:10118000EC00EC00ED00ED00EE00EE00EF00EF00F3
:10119000F000F100F100F200F200F300F300F300C0
:1011A000F400F400F500F500F600F600F600F70094
:1011B000F700F800F800F800F900F900F900FA006B
:1011C000FA00FA00FA00FB00FB00FB00FB00FC0049
:1011D000FC00FC00FC00FD00FD00FD00FD00FD002A
:1011E000FD00FE00FE00FE00FE00FE00FE00FE0010
:1011F000FE00FE00FE00FE00FE00FE00FE00FF00FE
:1012000008000700060005000400030003000300B7
:1012100003000300040004000400040004000400B0
:10122000040004000400040004000400040004009E
:10123000040004000400040004000400040004008E
:0C12400004000400050006000700080080
:04124C000034003436
:020000040001F9
:02000E00C40F1D
:02001000FF1DD2
:00000001FF
